{
  "contractName": "Banking",
  "abi": [
    {
      "inputs": [],
      "stateMutability": "nonpayable",
      "type": "constructor"
    },
    {
      "inputs": [
        {
          "internalType": "uint256",
          "name": "",
          "type": "uint256"
        }
      ],
      "name": "accounts",
      "outputs": [
        {
          "internalType": "uint256",
          "name": "serial",
          "type": "uint256"
        },
        {
          "internalType": "uint256",
          "name": "createdAt",
          "type": "uint256"
        },
        {
          "internalType": "string",
          "name": "name",
          "type": "string"
        },
        {
          "internalType": "string",
          "name": "location",
          "type": "string"
        },
        {
          "internalType": "address",
          "name": "creator",
          "type": "address"
        },
        {
          "internalType": "uint256",
          "name": "balance",
          "type": "uint256"
        },
        {
          "internalType": "bool",
          "name": "doesExist",
          "type": "bool"
        }
      ],
      "stateMutability": "view",
      "type": "function",
      "constant": true
    },
    {
      "inputs": [],
      "name": "serialNumber",
      "outputs": [
        {
          "internalType": "uint256",
          "name": "",
          "type": "uint256"
        }
      ],
      "stateMutability": "view",
      "type": "function",
      "constant": true
    },
    {
      "inputs": [],
      "name": "transaction",
      "outputs": [
        {
          "internalType": "uint256",
          "name": "",
          "type": "uint256"
        }
      ],
      "stateMutability": "view",
      "type": "function",
      "constant": true
    },
    {
      "inputs": [
        {
          "internalType": "uint256",
          "name": "",
          "type": "uint256"
        }
      ],
      "name": "transactions",
      "outputs": [
        {
          "internalType": "uint256",
          "name": "transacNum",
          "type": "uint256"
        },
        {
          "internalType": "string",
          "name": "name",
          "type": "string"
        },
        {
          "internalType": "string",
          "name": "location",
          "type": "string"
        },
        {
          "internalType": "uint256",
          "name": "currentBalance",
          "type": "uint256"
        },
        {
          "internalType": "uint256",
          "name": "amountTransacted",
          "type": "uint256"
        },
        {
          "internalType": "uint256",
          "name": "createdAt",
          "type": "uint256"
        },
        {
          "internalType": "string",
          "name": "transacType",
          "type": "string"
        },
        {
          "internalType": "uint256",
          "name": "accountSerialNumber",
          "type": "uint256"
        }
      ],
      "stateMutability": "view",
      "type": "function",
      "constant": true
    },
    {
      "inputs": [
        {
          "internalType": "address payable",
          "name": "_creator",
          "type": "address"
        },
        {
          "internalType": "string",
          "name": "_name",
          "type": "string"
        },
        {
          "internalType": "string",
          "name": "_location",
          "type": "string"
        }
      ],
      "name": "createAccount",
      "outputs": [],
      "stateMutability": "payable",
      "type": "function",
      "payable": true
    },
    {
      "inputs": [
        {
          "internalType": "uint256",
          "name": "_serial",
          "type": "uint256"
        },
        {
          "internalType": "uint256",
          "name": "_amount",
          "type": "uint256"
        },
        {
          "internalType": "address payable",
          "name": "_creator",
          "type": "address"
        }
      ],
      "name": "addBalance",
      "outputs": [],
      "stateMutability": "payable",
      "type": "function",
      "payable": true
    },
    {
      "inputs": [
        {
          "internalType": "uint256",
          "name": "_serial",
          "type": "uint256"
        },
        {
          "internalType": "uint256",
          "name": "_amount",
          "type": "uint256"
        },
        {
          "internalType": "address payable",
          "name": "_creator",
          "type": "address"
        }
      ],
      "name": "withdrawBalance",
      "outputs": [
        {
          "internalType": "bool",
          "name": "_success",
          "type": "bool"
        }
      ],
      "stateMutability": "nonpayable",
      "type": "function"
    },
    {
      "inputs": [
        {
          "internalType": "uint256",
          "name": "_amount",
          "type": "uint256"
        },
        {
          "internalType": "uint256",
          "name": "_serial_2",
          "type": "uint256"
        },
        {
          "internalType": "uint256",
          "name": "_serial",
          "type": "uint256"
        }
      ],
      "name": "transactAmount",
      "outputs": [],
      "stateMutability": "nonpayable",
      "type": "function"
    },
    {
      "inputs": [
        {
          "internalType": "uint256",
          "name": "_serial",
          "type": "uint256"
        }
      ],
      "name": "getBalance",
      "outputs": [
        {
          "internalType": "uint256",
          "name": "",
          "type": "uint256"
        }
      ],
      "stateMutability": "view",
      "type": "function",
      "constant": true
    },
    {
      "inputs": [],
      "name": "getContractBalance",
      "outputs": [
        {
          "internalType": "uint256",
          "name": "",
          "type": "uint256"
        }
      ],
      "stateMutability": "view",
      "type": "function",
      "constant": true
    }
  ],
  "bytecode": "0x60806040526000805560006001557366c3c6eb1a877f581181dc61713cb374f785843f600260006101000a81548173ffffffffffffffffffffffffffffffffffffffff021916908373ffffffffffffffffffffffffffffffffffffffff1602179055503480156200006f57600080fd5b506040518060e00160405280600081526020014281526020016040518060400160405280600681526020017f53696e646875000000000000000000000000000000000000000000000000000081525081526020016040518060400160405280600c81526020017f4e4954204475726761707572000000000000000000000000000000000000000081525081526020013073ffffffffffffffffffffffffffffffffffffffff168152602001600081526020016001151581525060046000808152602001908152602001600020600082015181600001556020820151816001015560408201518160020190805190602001906200016d92919062000207565b5060608201518160030190805190602001906200018c92919062000207565b5060808201518160040160006101000a81548173ffffffffffffffffffffffffffffffffffffffff021916908373ffffffffffffffffffffffffffffffffffffffff16021790555060a0820151816005015560c08201518160060160006101000a81548160ff0219169083151502179055509050506200031c565b8280546200021590620002b7565b90600052602060002090601f01602090048101928262000239576000855562000285565b82601f106200025457805160ff191683800117855562000285565b8280016001018555821562000285579182015b828111156200028457825182559160200191906001019062000267565b5b50905062000294919062000298565b5090565b5b80821115620002b357600081600090555060010162000299565b5090565b60006002820490506001821680620002d057607f821691505b60208210811415620002e757620002e6620002ed565b5b50919050565b7f4e487b7100000000000000000000000000000000000000000000000000000000600052602260045260246000fd5b611f2d806200032c6000396000f3fe6080604052600436106100915760003560e01c80639ace38c2116100595780639ace38c21461016e578063c99de57e146101b2578063e15cdcc4146101dd578063f2a40db8146101f9578063fb3d47711461023c57610091565b80631e010439146100965780632a0daeea146100d35780633bd8b71d146100fe5780634dbe4454146101275780636f9fb98a14610143575b600080fd5b3480156100a257600080fd5b506100bd60048036038101906100b8919061187a565b610279565b6040516100ca9190611a82565b60405180910390f35b3480156100df57600080fd5b506100e8610330565b6040516100f59190611a82565b60405180910390f35b34801561010a57600080fd5b50610125600480360381019061012091906118f2565b610336565b005b610141600480360381019061013c91906117fb565b610757565b005b34801561014f57600080fd5b50610158610ab6565b6040516101659190611a82565b60405180910390f35b34801561017a57600080fd5b506101956004803603810190610190919061187a565b610b4f565b6040516101a9989796959493929190611a9d565b60405180910390f35b3480156101be57600080fd5b506101c7610d2f565b6040516101d49190611a82565b60405180910390f35b6101f760048036038101906101f291906118a3565b610d35565b005b34801561020557600080fd5b50610220600480360381019061021b919061187a565b611117565b6040516102339796959493929190611b30565b60405180910390f35b34801561024857600080fd5b50610263600480360381019061025e91906118a3565b611296565b6040516102709190611a27565b60405180910390f35b6000600260009054906101000a900473ffffffffffffffffffffffffffffffffffffffff1673ffffffffffffffffffffffffffffffffffffffff163373ffffffffffffffffffffffffffffffffffffffff16141561030c576040517f08c379a000000000000000000000000000000000000000000000000000000000815260040161030390611a62565b60405180910390fd5b60006004600084815260200190815260200160002060050154905080915050919050565b60005481565b600260009054906101000a900473ffffffffffffffffffffffffffffffffffffffff1673ffffffffffffffffffffffffffffffffffffffff163373ffffffffffffffffffffffffffffffffffffffff1614156103c7576040517f08c379a00000000000000000000000000000000000000000000000000000000081526004016103be90611a62565b60405180910390fd5b6002670de0b6b3a7640000846103dd9190611c80565b60046000848152602001908152602001600020600501546103fe9190611cb1565b1061071757670de0b6b3a7640000836104179190611c80565b60046000838152602001908152602001600020600501600082825461043c9190611cb1565b92505081905550670de0b6b3a7640000836104579190611c80565b60046000848152602001908152602001600020600501600082825461047c9190611c2a565b925050819055506001600081548092919061049690611db3565b919050555060405180610100016040528060015481526020016004600084815260200190815260200160002060020180546104d090611d81565b80601f01602080910402602001604051908101604052809291908181526020018280546104fc90611d81565b80156105495780601f1061051e57610100808354040283529160200191610549565b820191906000526020600020905b81548152906001019060200180831161052c57829003601f168201915b5050505050815260200160046000848152602001908152602001600020600301805461057490611d81565b80601f01602080910402602001604051908101604052809291908181526020018280546105a090611d81565b80156105ed5780601f106105c2576101008083540402835291602001916105ed565b820191906000526020600020905b8154815290600101906020018083116105d057829003601f168201915b5050505050815260200160046000848152602001908152602001600020600501548152602001670de0b6b3a7640000856106279190611c80565b81526020014281526020016040518060400160405280601081526020017f5472616e736665722042616c616e6365000000000000000000000000000000008152508152602001828152506003600060015481526020019081526020016000206000820151816000015560208201518160010190805190602001906106ac9291906116c6565b5060408201518160020190805190602001906106c99291906116c6565b50606082015181600301556080820151816004015560a0820151816005015560c08201518160060190805190602001906107049291906116c6565b5060e08201518160070155905050610752565b6040517f08c379a000000000000000000000000000000000000000000000000000000000815260040161074990611a42565b60405180910390fd5b505050565b600260009054906101000a900473ffffffffffffffffffffffffffffffffffffffff1673ffffffffffffffffffffffffffffffffffffffff163373ffffffffffffffffffffffffffffffffffffffff1614156107e8576040517f08c379a00000000000000000000000000000000000000000000000000000000081526004016107df90611a62565b60405180910390fd5b60038373ffffffffffffffffffffffffffffffffffffffff163110610a765760008081548092919061081990611db3565b91905055506040518060e0016040528060005481526020014281526020018381526020018281526020018473ffffffffffffffffffffffffffffffffffffffff16815260200160028152602001600115158152506004600080548152602001908152602001600020600082015181600001556020820151816001015560408201518160020190805190602001906108b19291906116c6565b5060608201518160030190805190602001906108ce9291906116c6565b5060808201518160040160006101000a81548173ffffffffffffffffffffffffffffffffffffffff021916908373ffffffffffffffffffffffffffffffffffffffff16021790555060a0820151816005015560c08201518160060160006101000a81548160ff0219169083151502179055509050506001600081548092919061095690611db3565b9190505550604051806101000160405280600154815260200183815260200182815260200160028152602001600281526020014281526020016040518060400160405280601081526020017f4163636f756e74204372656174696f6e000000000000000000000000000000008152508152602001600054815250600360006001548152602001908152602001600020600082015181600001556020820151816001019080519060200190610a0b9291906116c6565b506040820151816002019080519060200190610a289291906116c6565b50606082015181600301556080820151816004015560a0820151816005015560c0820151816006019080519060200190610a639291906116c6565b5060e08201518160070155905050610ab1565b6040517f08c379a0000000000000000000000000000000000000000000000000000000008152600401610aa890611a42565b60405180910390fd5b505050565b6000600260009054906101000a900473ffffffffffffffffffffffffffffffffffffffff1673ffffffffffffffffffffffffffffffffffffffff163373ffffffffffffffffffffffffffffffffffffffff161415610b49576040517f08c379a0000000000000000000000000000000000000000000000000000000008152600401610b4090611a62565b60405180910390fd5b47905090565b6003602052806000526040600020600091509050806000015490806001018054610b7890611d81565b80601f0160208091040260200160405190810160405280929190818152602001828054610ba490611d81565b8015610bf15780601f10610bc657610100808354040283529160200191610bf1565b820191906000526020600020905b815481529060010190602001808311610bd457829003601f168201915b505050505090806002018054610c0690611d81565b80601f0160208091040260200160405190810160405280929190818152602001828054610c3290611d81565b8015610c7f5780601f10610c5457610100808354040283529160200191610c7f565b820191906000526020600020905b815481529060010190602001808311610c6257829003601f168201915b505050505090806003015490806004015490806005015490806006018054610ca690611d81565b80601f0160208091040260200160405190810160405280929190818152602001828054610cd290611d81565b8015610d1f5780601f10610cf457610100808354040283529160200191610d1f565b820191906000526020600020905b815481529060010190602001808311610d0257829003601f168201915b5050505050908060070154905088565b60015481565b600260009054906101000a900473ffffffffffffffffffffffffffffffffffffffff1673ffffffffffffffffffffffffffffffffffffffff163373ffffffffffffffffffffffffffffffffffffffff161415610dc6576040517f08c379a0000000000000000000000000000000000000000000000000000000008152600401610dbd90611a62565b60405180910390fd5b6001670de0b6b3a764000083610ddc9190611c80565b610de69190611c2a565b8173ffffffffffffffffffffffffffffffffffffffff1631106110d757670de0b6b3a764000082610e179190611c80565b600460008581526020019081526020016000206005016000828254610e3c9190611c2a565b9250508190555060016000815480929190610e5690611db3565b91905055506040518061010001604052806001548152602001600460008681526020019081526020016000206002018054610e9090611d81565b80601f0160208091040260200160405190810160405280929190818152602001828054610ebc90611d81565b8015610f095780601f10610ede57610100808354040283529160200191610f09565b820191906000526020600020905b815481529060010190602001808311610eec57829003601f168201915b50505050508152602001600460008681526020019081526020016000206003018054610f3490611d81565b80601f0160208091040260200160405190810160405280929190818152602001828054610f6090611d81565b8015610fad5780601f10610f8257610100808354040283529160200191610fad565b820191906000526020600020905b815481529060010190602001808311610f9057829003601f168201915b5050505050815260200160046000868152602001908152602001600020600501548152602001670de0b6b3a764000084610fe79190611c80565b81526020014281526020016040518060400160405280600b81526020017f4164642042616c616e636500000000000000000000000000000000000000000081525081526020018481525060036000600154815260200190815260200160002060008201518160000155602082015181600101908051906020019061106c9291906116c6565b5060408201518160020190805190602001906110899291906116c6565b50606082015181600301556080820151816004015560a0820151816005015560c08201518160060190805190602001906110c49291906116c6565b5060e08201518160070155905050611112565b6040517f08c379a000000000000000000000000000000000000000000000000000000000815260040161110990611a42565b60405180910390fd5b505050565b600460205280600052604060002060009150905080600001549080600101549080600201805461114690611d81565b80601f016020809104026020016040519081016040528092919081815260200182805461117290611d81565b80156111bf5780601f10611194576101008083540402835291602001916111bf565b820191906000526020600020905b8154815290600101906020018083116111a257829003601f168201915b5050505050908060030180546111d490611d81565b80601f016020809104026020016040519081016040528092919081815260200182805461120090611d81565b801561124d5780601f106112225761010080835404028352916020019161124d565b820191906000526020600020905b81548152906001019060200180831161123057829003601f168201915b5050505050908060040160009054906101000a900473ffffffffffffffffffffffffffffffffffffffff16908060050154908060060160009054906101000a900460ff16905087565b6000600260009054906101000a900473ffffffffffffffffffffffffffffffffffffffff1673ffffffffffffffffffffffffffffffffffffffff163373ffffffffffffffffffffffffffffffffffffffff161415611329576040517f08c379a000000000000000000000000000000000000000000000000000000000815260040161132090611a62565b60405180910390fd5b6002670de0b6b3a76400008461133f9190611c80565b60046000878152602001908152602001600020600501546113609190611cb1565b10611684578173ffffffffffffffffffffffffffffffffffffffff166108fc849081150290604051600060405180830381858888f193505050501580156113ab573d6000803e3d6000fd5b50670de0b6b3a7640000836113c09190611c80565b6004600086815260200190815260200160002060050160008282546113e59190611cb1565b92505081905550600160008154809291906113ff90611db3565b9190505550604051806101000160405280600154815260200160046000878152602001908152602001600020600201805461143990611d81565b80601f016020809104026020016040519081016040528092919081815260200182805461146590611d81565b80156114b25780601f10611487576101008083540402835291602001916114b2565b820191906000526020600020905b81548152906001019060200180831161149557829003601f168201915b505050505081526020016004600087815260200190815260200160002060030180546114dd90611d81565b80601f016020809104026020016040519081016040528092919081815260200182805461150990611d81565b80156115565780601f1061152b57610100808354040283529160200191611556565b820191906000526020600020905b81548152906001019060200180831161153957829003601f168201915b5050505050815260200160046000878152602001908152602001600020600501548152602001670de0b6b3a7640000856115909190611c80565b81526020014281526020016040518060400160405280601081526020017f57697468647261772042616c616e6365000000000000000000000000000000008152508152602001858152506003600060015481526020019081526020016000206000820151816000015560208201518160010190805190602001906116159291906116c6565b5060408201518160020190805190602001906116329291906116c6565b50606082015181600301556080820151816004015560a0820151816005015560c082015181600601908051906020019061166d9291906116c6565b5060e08201518160070155905050600190506116bf565b6040517f08c379a00000000000000000000000000000000000000000000000000000000081526004016116b690611a42565b60405180910390fd5b9392505050565b8280546116d290611d81565b90600052602060002090601f0160209004810192826116f4576000855561173b565b82601f1061170d57805160ff191683800117855561173b565b8280016001018555821561173b579182015b8281111561173a57825182559160200191906001019061171f565b5b509050611748919061174c565b5090565b5b8082111561176557600081600090555060010161174d565b5090565b600061177c61177784611bde565b611bad565b90508281526020810184848401111561179457600080fd5b61179f848285611d3f565b509392505050565b6000813590506117b681611ec9565b92915050565b600082601f8301126117cd57600080fd5b81356117dd848260208601611769565b91505092915050565b6000813590506117f581611ee0565b92915050565b60008060006060848603121561181057600080fd5b600061181e868287016117a7565b935050602084013567ffffffffffffffff81111561183b57600080fd5b611847868287016117bc565b925050604084013567ffffffffffffffff81111561186457600080fd5b611870868287016117bc565b9150509250925092565b60006020828403121561188c57600080fd5b600061189a848285016117e6565b91505092915050565b6000806000606084860312156118b857600080fd5b60006118c6868287016117e6565b93505060206118d7868287016117e6565b92505060406118e8868287016117a7565b9150509250925092565b60008060006060848603121561190757600080fd5b6000611915868287016117e6565b9350506020611926868287016117e6565b9250506040611937868287016117e6565b9150509250925092565b61194a81611ce5565b82525050565b61195981611d09565b82525050565b600061196a82611c0e565b6119748185611c19565b9350611984818560208601611d4e565b61198d81611eb8565b840191505092915050565b60006119a5601283611c19565b91507f496e73756666696369656e742046756e647300000000000000000000000000006000830152602082019050919050565b60006119e5600d83611c19565b91507f4f6e6c7920486f73706974616c000000000000000000000000000000000000006000830152602082019050919050565b611a2181611d35565b82525050565b6000602082019050611a3c6000830184611950565b92915050565b60006020820190508181036000830152611a5b81611998565b9050919050565b60006020820190508181036000830152611a7b816119d8565b9050919050565b6000602082019050611a976000830184611a18565b92915050565b600061010082019050611ab3600083018b611a18565b8181036020830152611ac5818a61195f565b90508181036040830152611ad9818961195f565b9050611ae86060830188611a18565b611af56080830187611a18565b611b0260a0830186611a18565b81810360c0830152611b14818561195f565b9050611b2360e0830184611a18565b9998505050505050505050565b600060e082019050611b45600083018a611a18565b611b526020830189611a18565b8181036040830152611b64818861195f565b90508181036060830152611b78818761195f565b9050611b876080830186611941565b611b9460a0830185611a18565b611ba160c0830184611950565b98975050505050505050565b6000604051905081810181811067ffffffffffffffff82111715611bd457611bd3611e89565b5b8060405250919050565b600067ffffffffffffffff821115611bf957611bf8611e89565b5b601f19601f8301169050602081019050919050565b600081519050919050565b600082825260208201905092915050565b6000611c3582611d35565b9150611c4083611d35565b9250827fffffffffffffffffffffffffffffffffffffffffffffffffffffffffffffffff03821115611c7557611c74611dfc565b5b828201905092915050565b6000611c8b82611d35565b9150611c9683611d35565b925082611ca657611ca5611e2b565b5b828204905092915050565b6000611cbc82611d35565b9150611cc783611d35565b925082821015611cda57611cd9611dfc565b5b828203905092915050565b6000611cf082611d15565b9050919050565b6000611d0282611d15565b9050919050565b60008115159050919050565b600073ffffffffffffffffffffffffffffffffffffffff82169050919050565b6000819050919050565b82818337600083830152505050565b60005b83811015611d6c578082015181840152602081019050611d51565b83811115611d7b576000848401525b50505050565b60006002820490506001821680611d9957607f821691505b60208210811415611dad57611dac611e5a565b5b50919050565b6000611dbe82611d35565b91507fffffffffffffffffffffffffffffffffffffffffffffffffffffffffffffffff821415611df157611df0611dfc565b5b600182019050919050565b7f4e487b7100000000000000000000000000000000000000000000000000000000600052601160045260246000fd5b7f4e487b7100000000000000000000000000000000000000000000000000000000600052601260045260246000fd5b7f4e487b7100000000000000000000000000000000000000000000000000000000600052602260045260246000fd5b7f4e487b7100000000000000000000000000000000000000000000000000000000600052604160045260246000fd5b6000601f19601f8301169050919050565b611ed281611cf7565b8114611edd57600080fd5b50565b611ee981611d35565b8114611ef457600080fd5b5056fea2646970667358221220a704b0ee4a43135d9ed1731c7dfda18d5d3faa3adcb5e8d6c65b2bb9a7a1a95564736f6c63430008000033",
  "immutableReferences": {},
  "source": "\r\n\r\n// SPDX-License-Identifier: GPL-3.0\r\npragma solidity ^0.8.0;\r\n\r\ncontract Banking{\r\n    uint256 public serialNumber = 0;\r\n\r\n\r\n    uint256 public transaction = 0;\r\n\r\n\r\n    address user = 0x66c3c6eB1A877F581181dC61713CB374F785843f;\r\n\r\n\r\n    struct Transaction {\r\n        uint256 transacNum;\r\n        string name;\r\n        string location;\r\n        uint256 currentBalance;\r\n        uint256 amountTransacted;\r\n        uint256 createdAt;\r\n        string transacType;\r\n        uint256 accountSerialNumber; \r\n    }\r\n\r\n    mapping(uint256 => Transaction) public transactions;\r\n    mapping(uint256 => Account) public accounts;\r\n\r\n\r\n    struct Account {\r\n        uint256 serial;\r\n        uint256 createdAt;\r\n        string name;\r\n        string location;\r\n        address creator;\r\n        uint256 balance;\r\n        bool doesExist;\r\n    }\r\n\r\n    constructor() {\r\n        accounts[0] = Account(\r\n            0,\r\n            block.timestamp,\r\n            \"Sindhu\",\r\n            \"NIT Durgapur\",\r\n            address(this),\r\n            0,\r\n            true\r\n        );\r\n    }\r\n\r\n    modifier hospitalModifier()\r\n    {\r\n        require(msg.sender != user, 'Only Hospital');\r\n        _;\r\n    }\r\n    \r\n\r\n    function createAccount(\r\n        address payable _creator,\r\n        string memory _name,\r\n        string memory _location\r\n    ) public hospitalModifier() payable {\r\n        if (_creator.balance >= 3) {\r\n            serialNumber++;\r\n\r\n            accounts[serialNumber] = Account(\r\n                serialNumber,\r\n                block.timestamp,\r\n                _name,\r\n                _location,\r\n                _creator,\r\n                2,\r\n                true\r\n            );\r\n\r\n            transaction++;\r\n\r\n            transactions[transaction] = Transaction(\r\n                transaction,\r\n                _name,\r\n                _location,\r\n                2,\r\n                2,\r\n                block.timestamp,\r\n                \"Account Creation\",\r\n                serialNumber\r\n            );\r\n\r\n        } else {\r\n            revert(\"Insufficient Funds\");\r\n        }\r\n    }\r\n\r\n    function addBalance(\r\n        uint256 _serial,\r\n        uint256 _amount,\r\n        address payable _creator\r\n    ) public hospitalModifier() payable {\r\n        if (_creator.balance >= _amount / 1000000000000000000 + 1) {\r\n            accounts[_serial].balance += _amount / 1000000000000000000;\r\n            transaction++;\r\n            transactions[transaction] = Transaction(\r\n                transaction,\r\n                accounts[_serial].name,\r\n                accounts[_serial].location,\r\n                accounts[_serial].balance,\r\n                _amount / 1000000000000000000,\r\n                block.timestamp,\r\n                \"Add Balance\",\r\n                _serial\r\n            );\r\n\r\n        } else {\r\n            revert(\"Insufficient Funds\");\r\n        }\r\n    }\r\n\r\n    function withdrawBalance(\r\n        uint256 _serial,\r\n        uint256 _amount,\r\n        address payable _creator\r\n    )\r\n\r\n    hospitalModifier() external returns (bool _success) {\r\n        if(accounts[_serial].balance - _amount / 1000000000000000000 >=  2) {\r\n\r\n            _creator.transfer(_amount);\r\n            accounts[_serial].balance -= _amount / 1000000000000000000;\r\n            transaction++;\r\n            transactions[transaction] = Transaction(\r\n                transaction,\r\n                accounts[_serial].name,\r\n                accounts[_serial].location,\r\n                accounts[_serial].balance,\r\n                _amount / 1000000000000000000,\r\n                block.timestamp,\r\n                \"Withdraw Balance\",\r\n                _serial\r\n            );\r\n            return true;\r\n        } else {\r\n            revert(\"Insufficient Funds\");\r\n        }\r\n    }\r\n\r\n    function transactAmount (\r\n        uint256 _amount,\r\n        uint256 _serial_2,\r\n        uint256 _serial\r\n    ) public hospitalModifier(){\r\n        if(accounts[_serial].balance - _amount / 1000000000000000000  >= 2 ){\r\n            accounts[_serial].balance -= _amount / 1000000000000000000;\r\n            accounts[_serial_2].balance += _amount / 1000000000000000000;\r\n            transaction++;\r\n            transactions[transaction] = Transaction(\r\n                transaction,\r\n                accounts[_serial].name,\r\n                accounts[_serial].location,\r\n                accounts[_serial].balance,\r\n                _amount / 1000000000000000000,\r\n                block.timestamp,\r\n                \"Transfer Balance\",\r\n                _serial\r\n            );\r\n        } else {\r\n            revert(\"Insufficient Funds\");\r\n        }\r\n    }\r\n\r\n    function getBalance(uint256 _serial) public view hospitalModifier() returns (uint256) {\r\n        uint256 bal = accounts[_serial].balance;\r\n        return bal;\r\n    }\r\n\r\n    function getContractBalance() external view hospitalModifier() returns (uint256) {\r\n        return address(this).balance;\r\n    }\r\n\r\n}\r\n\r\n\r\n",
  "sourcePath": "C:\\Users\\titas\\OneDrive\\Desktop\\Ethexchange\\contracts\\Banking.sol",
  "compiler": {
    "name": "solc",
    "version": "0.8.0+commit.c7dfd78e.Emscripten.clang"
  },
  "schemaVersion": "3.4.13",
  "updatedAt": "2023-04-14T11:55:24.064Z",
  "networkType": "ethereum",
  "devdoc": {
    "kind": "dev",
    "methods": {},
    "version": 1
  },
  "userdoc": {
    "kind": "user",
    "methods": {},
    "version": 1
  }
}